:020000040800F2
:10000000B8080020990100089B280008A7220008D2
:10001000992800083D08000815300008000000007D
:10002000000000000000000000000000C1290008DE
:10003000FD080008000000009D280008ED2A0008C7
:10004000B3010008B3010008B3010008B3010008C0
:10005000B3010008B3010008B3010008B3010008B0
:10006000B3010008B3010008B3010008B3010008A0
:10007000B3010008B3010008B3010008B301000890
:10008000B3010008B3010008B3010008B301000880
:10009000B3010008B3010008B3010008B301000870
:1000A000B3010008B3010008B3010008B301000860
:1000B000B3010008B3010008B3010008B301000850
:1000C000B3010008B3010008B3010008B301000840
:1000D000B3010008D12E0008B3010008B3010008E5
:1000E000B3010008B3010008B301000800F002F8F2
:1000F00000F042F80AA090E8000C82448344AAF180
:100100000107DA4501D100F037F8AFF2090EBAE87D
:100110000F0013F0010F18BFFB1A43F0010318473B
:100120001835000038350000103A24BF78C878C16F
:10013000FAD8520724BF30C830C144BF04680C60ED
:10014000704700000023002400250026103A28BF35
:1001500078C1FBD8520728BF30C148BF0B60704739
:10016000752900F0A380732900F06B82002070478E
:100170001FB51FBD10B510BD00F0BBFA1146FFF74B
:10018000F7FF03F073F800F0D9FA03B4FFF7F2FFBA
:1001900003BC00F0E1FA0000094880470948004725
:1001A000FEE7FEE7FEE7FEE7FEE7FEE7FEE7FEE727
:1001B000FEE7FEE704480549054A064B7047000084
:1001C000692B0008ED000008B8020020B8080020E4
:1001D000B8040020B80400200FB41CB50C0007AA16
:1001E000009001D02044401E074B7B44694601909B
:1001F000069800F0F4F9002C03D06946002000F0C6
:1002000001FA1CBC5DF814FB2104000070B5044623
:1002100085690068C10601D5302600E02026C007A8
:1002200007D070BDD4E9012130469047206A401CB8
:1002300020626D1EF6D570BD70B5044685690078E4
:10024000C00707D170BDD4E9012120209047206A62
:10025000401C20626D1EF6D570BD70B50C4605467B
:10026000012A05D02878800600D5EA69002302E03B
:10027000012305E05B1C934202D2E05C0028F9D127
:10028000A869E618C01AA861286A18442862284696
:10029000FFF7BCFF04E0D5E9012114F8010B9047FA
:1002A000B442F8D32846FFF7C7FF70BD2DE9F041EF
:1002B0000646002410687529314616A510D0AFF304
:1002C0000080002802DA404213A507E031688A075F
:1002D00001D512A502E0490704D511A5012401E0CA
:1002E000AFF3008000210A2206F1240709E0B0FBE9
:1002F000F2FCB0FBF2F302FB1C00303078541846DD
:10030000491C0028F3D123462A463046BDE8F04177
:1003100000F006B9000000002D0000002B000000D6
:10032000200000002DE9F0474FF0000A89460446FE
:10033000C0F820A02046E1688847002876D025280C
:1003400006D0D4E901219047206A401C2062F1E7E1
:10035000E168204600258847C4F81CA0064600270F
:10036000C4F818A02A2E09D0304602F064FE38B333
:1003700004EB8708303EC8F8186019E059F8041BF0
:10038000204604EB87029161E1688847012F064609
:1003900018D1E069002820DA25F020051DE0D8F802
:1003A000180000EB800006EB40003038C8F8180059
:1003B0002046E1688847064602F03DFE0028EED15F
:1003C000012F0AD02E2E08D12046E16888477F1CD5
:1003D0000646022F45F02005C4DBA069002803DA99
:1003E000404245F00105A061E80701D025F0100565
:1003F000B6B1A6F14100192802D8203645F40065AF
:100400004A463146204625604D46FFF7A9FE58B1C1
:10041000012806D0ED1D25F0070000F1080989E745
:1004200004E005F1040985E730468AE7206ABDE863
:10043000F087032A40F2308010F0030C00F01580A2
:1004400011F8013BBCF1020F624498BF11F801CBD7
:1004500000F8013B38BF11F8013BA2F1040298BF3C
:1004600000F801CB38BF00F8013B11F0030300F0A6
:10047000EC80083AC0F0088051F8043B083A51F883
:1004800004CBA0E80810F5E7121D5CBF51F8043B4F
:1004900040F8043BAFF30080D20724BF11F8013BC2
:1004A00011F801CB48BF11F8012B24BF00F8013B24
:1004B00000F801CB48BF00F8012B704702F0FF03A2
:1004C00043EA032242EA024200F0F3B84FF000028E
:1004D00000B5134694469646203922BFA0E80C503A
:1004E000A0E80C50B1F12001BFF4F7AF090728BF15
:1004F000A0E80C5048BF0CC05DF804EB890028BF91
:1005000040F8042B08BF704748BF20F8022B11F0B9
:10051000804F18BF00F8012B704770477047704735
:100520002DE9F0470D4699469246044600F124080D
:100530000168880604D5E06921F01001216000E01F
:100540000120A84201DD471B00E00027A1697A19BC
:1005500002EB0900081AA0612078C00602D42046E8
:10056000FFF754FE002608E0D4E901211AF806003E
:100570009047206A401C761C20624E45F4DB2078B0
:10058000C0060AD52046FFF741FE06E0D4E9012166
:1005900030209047206A401C2062381EA7F10107D6
:1005A000F4DC07E0D4E9012118F805009047206A3F
:1005B000401C2062281EA5F10105F3DC2046FFF750
:1005C0003BFE2078000602D50220BDE8F08701201E
:1005D000FBE7000001694A1C02610878704700B51A
:1005E0008FB0CDE901310021059105497944CDE96C
:1005F000031011466846FFF795FE0FB000BD0000DE
:10060000E5FFFFFF0A6802F8010B0A607047D1E9B5
:1006100000239A4202D2531C0B601070704710B531
:10062000436913B1AFF3008001E0FFF716FE01202C
:1006300010BD127800F124010A7000224A700122D4
:10064000EDE711684FF0FF32E9E710B5203AC0F04E
:100650000B80B1E81850203AA0E81850B1E81850C3
:10066000A0E81850BFF4F5AF5FEA027C24BFB1E800
:100670001850A0E8185044BF18C918C0BDE8104071
:100680005FEA827C24BF51F8043B40F8043B08BF7A
:100690007047D20728BF31F8023B48BF11F8012B41
:1006A00028BF20F8023B48BF00F8012B70474FF0ED
:1006B00000020429C0F0128010F0030C3FF408AFD0
:1006C000CCF1040CBCF1020F18BF00F8012BA8BF3D
:1006D00020F8022BA1EB0C01FFF7FABE5FEAC17C08
:1006E00024BF00F8012B00F8012B48BF00F8012BB4
:1006F0007047754600F02CF8AE4605006946534633
:1007000020F00700854618B020B5FFF753FDBDE87F
:1007100020404FF000064FF000074FF000084FF068
:10072000000B21F00701AC46ACE8C009ACE8C009F9
:10073000ACE8C009ACE8C0098D46704710B5044666
:10074000AFF300802046BDE81040FFF71EBD00005B
:10075000004870475802002001491820ABBEFEE750
:10076000260002007047000070B5044600688168EA
:10077000C943C90717D1816821F00101816000F0E8
:10078000A7FC05460AE000BF00F0A2FC401B0228BF
:1007900004D920688068C043C00706D020688068FC
:1007A000C043C007F0D0002070BDA06A40F0100028
:1007B000A062E06A40F00100E062012070BD00002C
:1007C000F8B500260446009600688168C943C90749
:1007D0002DD0816841F001018160164816490068FA
:1007E000B0FBF1F000E0401E00900028FBD100F0CB
:1007F0006FFC054616E000BF00F06AFC401B0228B3
:1008000010D920688068C043C0070BD0A06A40F0B0
:100810001000A062E06A40F00100E06284F8246009
:100820000120F8BD20688068C043C007E4D10020E3
:10083000F8BD00002C00002040420F00FEE7000041
:1008400008B1012200E000222021014800F03BBC59
:10085000000C0140034610B50020024603E09C5CFA
:100860006040521C92B28A42F9D310BD70B5044662
:10087000458C40F6C4100121002340F6FC0285425D
:1008800002D384F82D1003E0954201D884F82D306E
:1008900094F829507DB194F82D5005B1012584F8C4
:1008A0002650A58C854202D384F8271003E0954298
:1008B00001D884F8273094F82D0084F8280094F8A3
:1008C000260008B1012100E00021094802F029F8C2
:1008D00094F8270008B1012100E000210448083005
:1008E00002F01FF894F82800BDE87040FFF7A8BF99
:1008F000080000200260816083807047704700001C
:10090000F8B50024009490F824202546012A12D03E
:10091000012280F824204A681F23072A0DD2066886
:10092000776B521E02EB820293409F430B68934009
:100930001F43776319E00220F8BD06680D2A0AD22A
:10094000376BD21F02EB820293409F430B689340A8
:100950001F43376309E0F76A0D3A02EB82029340C6
:100960009F430B6893401F43F7620A68072306689A
:100970000A2A0AD3F7680A3A02EB420293409F43DD
:100980008B6893401F43F76008E0376902EB42022F
:1009900093409F438B6893401F4337610A68102A36
:1009A00001D0112A20D1124B02689A4217D19368C4
:1009B0001B0219D4936843F400039360096810295B
:1009C00012D10C490C4A0968B1FBF2F101EB81012B
:1009D000490000E0491E00910029FBD104E0816A32
:1009E00041F020018162012480F824502046F8BDA6
:1009F000002401402C00002040420F000068C06C21
:100A0000704700002DE9F0414FF0000704003D461B
:100A10007ED0A06A002628B9E66284F824602046C9
:100A200000F07EF82046FFF79FFEA16AC90600D4B9
:100A300020B1A06A40F01000A06269E0A16A21F430
:100A4000885141F00201A1626268E169237B0A4397
:100A500047EA43010A43A1684FF48077B94209D0BD
:100A6000012907D05FF0000194F814C0BCF1010F18
:100A700002D00AE03946F7E7F3B1A36A43F0200356
:100A8000A362E36A43F00103E3622368D3F804C07E
:100A90002CF4694C4CEA010CC3F804C021688B6843
:100AA000DFF870C003EA0C0313438B60A168B942FE
:100AB0000BD0012909D00CE0DFF85CC0A3690CEB76
:100AC00043330B4343F40061DFE7218A0D05A5F5AD
:100AD00080152168CB6A23F470032B43CB62216815
:100AE00089680E4B1940914208D1E662A16A21F053
:100AF000020141F00101A162BDE8F081A06A20F08D
:100B0000020040F01000A062E06A40F00100E062E4
:100B10000120F1E7FDF7E1FF00E0FFFFFE0E1FFF00
:100B200010B586B0002100910191029103911A4CF9
:100B300003681A4903221A48A34211D18B6943F46E
:100B400000738B618B6903F4007304938B6943F02A
:100B500004038B61896901F004010491082113E009
:100B6000104CA34215D18B6943F480638B618B6970
:100B700003F4806304938B6943F004038B618969F8
:100B800001F0040104910221CDE90012694600F050
:100B9000A5F906B010BD000000240140001002407D
:100BA00000080140002801402DE9F84300270D46C8
:100BB0000446009700F08CFA804620688168C905D9
:100BC00008D5A06A40F02000A06284F824700120BB
:100BD000BDE8F8834168C90503D4C06A10F4700FFA
:100BE0002AD0022000F09AFC3B490968B1FBF0F6DC
:100BF0002068036939490B424FEA61014FEAA112AB
:100C00001FD1C3684FEA611C13EA0C0F19D10369A5
:100C10000B4225D1C068104222D1142023E0681C69
:100C20000AD02DB100F054FAA0EB0800A84203D975
:100C300020680068800725D5206800688007EED509
:100C40002DE003690B4202D1C168114206D002694E
:100C500023490A4206D1C068084203D1542002E069
:100C6000292000E0FC204643009816E0681C11D0C3
:100C70002DB100F02DFAA0EB0800A8420AD9009887
:100C8000B04207D2A06A40F00400A06284F8247049
:100C900003209DE70098401C0090B042E6D32168F5
:100CA0006FF012000860A06A40F40070A062206833
:100CB0008068C0F3424007280CD1207B50B9A06A5D
:100CC00020F48070A062A06AC00403D4A06A40F03F
:100CD0000100A06200207BE72C0000202449922420
:100CE0004992240070B5044690F8240001280DD0E4
:100CF000012084F824002046FFF762FD02004FF037
:100D0000000005D084F82400104670BD022070BD9C
:100D1000A16A40F20123994341F48071A1621F4D01
:100D200023681F49AB4218D10E6816F4702F14D0F7
:100D3000A66A46F48016A6620E68760505D5A66AF0
:100D400026F4005646F48056A662A66AF6040AD532
:100D5000E66A26F00606E66206E0A66A26F4801633
:100D6000A6625E68E9E7E06284F824006FF00200A2
:100D7000186020688368C3F34243072B05D1A8425B
:100D800008D1096811F4702F04D0816841F48011F2
:100D90008160B9E7816841F4A001F9E700280140CA
:100DA0000424014010B5044690F82400012807D01F
:100DB000012084F824002046FFF7D6FC10B107E09C
:100DC000022010BDA16A21F4885141F00101A16205
:100DD000002184F8241010BD10B590F821100022D5
:100DE000022905D00421816380F82020012010BD54
:100DF00001680B6823F00E030B6001680B6823F099
:100E000001030B6090F84030C46B012101FA03F339
:100E1000636080F8211080F82020104610BD00008B
:100E200010B590F821100024022903D00421816319
:100E300001243DE001680A6822F00E020A600168A0
:100E40000A6822F001020A601A4A0168914201D13F
:100E5000012121E0174A1432914201D110211BE0F7
:100E6000144A2832914201D1891515E0114A3C32C9
:100E7000914201D189140FE00E4A5032914202D1C1
:100E80004FF4803108E00B4A6432914202D14FF4B2
:100E9000801101E04FF08071064A083A516001214B
:100EA00080F82110002180F82010416B01B18847A3
:100EB000204610BD0800024070B5044600F008F955
:100EC0000546601C02D004480078044400F000F994
:100ED000401BA042FAD370BD200000202DE9F84F3E
:100EE000DFF8B8910024A9F1040B23460F2709F17C
:100EF000040AABF1040EC9E00125A5402A40AA422C
:100F00007DD1674ED1F804C0ACEB0608B44532D0B1
:100F100014DCBCF1030F3AD009DCBCF1000F2AD07D
:100F2000BCF1010F1CD0BCF1020F31D11DE0BCF1AE
:100F3000110F17D0BCF1120F2AD119E0B8F5881F94
:100F400019D006DCB8F5803F15D0B8F5801F1FD149
:100F500011E0B8F5001F0ED0B8F5041F18D10AE053
:100F6000CB6815E0CB681B1D12E0CB6808330FE09F
:100F7000CB680C330CE08B682BB1012B4FF00803CE
:100F800003D0456104E0042302E0056100E0002392
:100F9000FF2A01D8064601E000F104064FEA840565
:100FA00001D9A5F12005D6F8008007FA05FC28EA4A
:100FB0000C0803FA05F548EA0508C6F800804D68F4
:100FC000ED0062D5374DAE6946F00106AE61AD6900
:100FD00024F0030605F001050095334D06EB050CE2
:100FE000DCF80850A607360F07FA06F825EA0805C8
:100FF000DFF8B880404503D14FF0000817E044E027
:10100000DFF8AC80404502D14FF001080FE0DFF877
:10101000A480404502D14FF0020808E0DFF8988034
:10102000404502D14FF0030801E04FF0040808FAF0
:1010300006F848EA0508CCF808804D68D9F8006041
:10104000ED024D4601D5164300E096432E604D68F3
:10105000DAF80060AD02554601D5164300E096432C
:101060002E604D68DBF80060AD035D4601D5164388
:1010700000E096432E604D68DEF80060ED03754693
:1010800001D5164300E096432E60641C0D682A4685
:10109000E5407FF431AFBDE8F88F0000080401405F
:1010A0000000111000100240000001400008014043
:1010B000000C01400010014000140140806808400D
:1010C00000D0012070470AB1016170470904FBE7B5
:1010D00001488068704700002000002070B50400BF
:1010E00025D094F83D00002520B984F83C502046D6
:1010F00000F04EF9242084F83D002068016821F0BA
:10110000010101602068016841F40041016020682C
:10111000016821F40041016000F05EFB4D4A616806
:10112000914201D84C4900E04C49884201D201204B
:1011300070BD4B492368B0FBF1F15E6826F03F06B5
:101140000E435E606368934206D94FF49673594329
:101150004FF47A73B1FBF3F12368491C1E6A26F041
:101160003F06314319626168914210D84900401E20
:10117000B0FBF1F2521CC2F30B02042A01D204208C
:1011800022E0B0FBF1F0401CC0F30B001CE0A268B1
:10119000F2B301EBC10303EB0116431EB3FBF6F3FD
:1011A0005B1C43F480431B0549D092B301EBC102A1
:1011B00002EB0111401EB0FBF1F0401CC0F30B002C
:1011C00040F4804040F400402168CA694CF6FF7347
:1011D0009A431043C861D4E90710014320680268AC
:1011E00022F0C00211430160D4E9030101432068E9
:1011F000826848F2FF339A4311438160D4E90501C4
:1012000008432168CA6822F0FF021043C86001E069
:101210000EE016E02068016841F0010101602564DC
:10122000202084F83D00256384F83E50002070BDE6
:1012300001EB4106431EB3FBF6F35B1CB3E7012051
:10124000C2E701EB4101401EB0FBF1F0401CC0F3CE
:101250000B00B7E7A086010080841E0000093D0056
:1012600040420F002DE9F84F1F4690468A4604463B
:10127000DDF82890FFF72CFF054694F83D00202864
:101280007FD11923012240492046009501F09EF8A4
:10129000002876D194F83C00012872D0012084F80F
:1012A0003C0020680168C90703D1016841F00101D1
:1012B00001602068016821F400610160212084F848
:1012C0003D00102084F83E0000262664C4F82480E7
:1012D0006785608D20852D48E0622B464A46514641
:1012E000204600F0F9FF90B92068416980690090BC
:1012F00036E02A464946204601F00EF950B1206CEE
:10130000042804D12068016841F4007101600120C3
:10131000BDE8F88F606A216800780861606A401C47
:101320006062618D491E6185218D491E89B22185CA
:1013300022685369DB435B070BD451B1007810611D
:10134000606A401C6062608D401E6085208D401E7A
:1013500020852A464946204601F00CF80028CED1C7
:10136000208D0028C5D154F83D0B016841F400716F
:101370000160202004F81E09E67766770020C7E7A1
:10138000FFE70220C4E70000020010000000FFFF9A
:1013900010B586B00021009101910291039100687F
:1013A0000F4988421AD10F4CA06940F00800A06193
:1013B000A069694600F008000490C0200090122047
:1013C0000190032003900848FFF788FDE06940F48E
:1013D0000010E061E06900F40010049006B010BD58
:1013E0000054004000100240000C01400248816897
:1013F000027811448160704720000020074810B532
:10140000016841F010010160032000F075F80F2021
:1014100000F006F800F024F8002010BD0020024083
:1014200070B50D4D04464FF47A712878B1FBF0F099
:101430000A490968B1FBF0F000F0A4FB48B9102C90
:1014400007D200222146501E00F036F800206C60C2
:1014500070BD012070BD0000200000202C00002085
:101460000C4808B5816941F001018161816901F091
:1014700001010091C16941F08051C161C06900F072
:10148000805000900448416821F0E06141F0007113
:10149000416008BD0010024000000140002809DB47
:1014A00000F01F02012191404009800000F1E0207E
:1014B000C0F8001170470000F0B40E4B1B680C46DA
:1014C000C3F30223C3F10705042D00D90425191D18
:1014D000072901D2002300E0DB1E012606FA05F1F0
:1014E000491E214099409E40761E16403143F0BC73
:1014F00001F091BD0CED00E0064900F0070208681C
:101500004FF6FF03184040EA0220034A10430860E8
:10151000704700000CED00E00000FA0510B5014630
:101520000020234C012922D0022939D010291DD1B5
:1015300061682268D20119D51E48C1F38342C903EC
:10154000805C0AD561681B4AC1F34041921E515C20
:10155000194AB2FBF1F1484301E018494843616878
:10156000490203D440000321B0FBF1F010BD226A10
:10157000C2F30121012903D1920701D5C80310BD8F
:10158000022905D1626A920702D549F6404010BD92
:101590000329FCD121688903F9D54FF2244010BDFD
:1015A00000F02AF96168C1F38131491C4900DBE789
:1015B000001002400E36000800127A0000093D00BB
:1015C0002DE9F84305460078354CC00754D0E06952
:1015D0000026C00008D4E06940F08050E061E06976
:1015E000012600F0805000902E480168C90512D4F1
:1015F0000168804641F480710160FFF769FD07468C
:1016000005E000BFFFF764FDC01B642823D8D8F8AD
:101610000000C005F6D5206A10F4407021D0A988DA
:1016200001F4407181421CD0206A1F49012220F43C
:1016300040700A6000220A602062C00711D0FFF7E4
:1016400047FD074641F2883808E000BFFFF740FD3C
:10165000C11B414502D90320BDE8F883206A8007F9
:10166000F4D5206A696820F44070084320621EB1F6
:10167000E06920F08050E0612878800705D5606837
:10168000A96820F44040084360602878C00605D56A
:101690006068E96820F48000084360600020DBE7B0
:1016A0000010024000700040400442422DE9F04723
:1016B0000F46050061D0434E306800F00700B84285
:1016C00009D2306820F0070038433060306800F0FD
:1016D0000700B84251D128683B4C810712D540071A
:1016E00003D5606840F4E06060602878000703D5A7
:1016F000606840F4605060606068A96820F0F000A5
:10170000084360602878C00728D06868012810D096
:101710002168022810D0890700292EDA616821F09B
:10172000030101436160FFF7D3FC804641F2883931
:101730000DE021688903EFE78901EDE7FFF7C8FCB9
:10174000A0EB0801494502D90320BDE8F087606895
:10175000696800F00C00B0EB810FEFD1306800F049
:101760000700B8420BD9306820F0070038433060DA
:10177000306800F00700B84201D00120E5E7287882
:10178000400705D56068E96820F4E06008436060C0
:101790002878000706D56068296920F4605040EA7F
:1017A000C100606000F038F86168084AC1F30311B5
:1017B000515CC8400649086006480068FFF730FEE3
:1017C0000020C2E700200240001002401E36000840
:1017D0002C000020240000200448054900684968C6
:1017E000044AC1F30221515CC84070472C0000201C
:1017F000001002402E360008044805490068496878
:10180000044AC1F3C221515CC84070472C0000203B
:10181000001002402E3600080E4A51680E4801F0B2
:101820000C03042B11D0082B0FD10C48C1F38343B8
:10183000C903C05C0AD55168084AC1F34041921EF1
:10184000515C054A5043B0FBF1F0704704494843EE
:10185000704700000010024000127A00FC350008BA
:1018600000093D002DE9F84F040070D02078C04DEC
:10187000C00749D06868C0F38100012807D06868B4
:10188000C0F38100022809D16868C00306D5286822
:10189000800339D560680028E7D035E06068B0F58E
:1018A000803F0BD010B1B0F5A02F11D0286820F4E4
:1018B00080302860286820F4802002E0286840F406
:1018C00080302860606890B1FFF702FC06460AE0AD
:1018D000286840F480202860F0E700BFFFF7F8FB9D
:1018E000801B642873D828688003F7D50CE0FFF7C5
:1018F000EFFB064605E000BFFFF7EAFB801B64280C
:10190000F0D828688003F7D420789A4E80074FF0EB
:1019100001094FF0000839D5686810F00C0F07D0A6
:101920006868C0F38100022809D16868C00306D442
:101930002868800714D52069012808D110E02069A3
:10194000B0B1C6F80090FFF7C3FB074605E00AE117
:10195000FFF7BEFBC01B0228C4D828688007F7D554
:101960002868616920F0F80040EAC10028600DE0B5
:10197000C6F80080FFF7ACFB074604E0FFF7A8FBC2
:10198000C01B022823D828688007F7D420780007D6
:101990002CD57948A169D9B1C0F80090FFF798FB20
:1019A000074604E0FFF794FBC01B02280FD8686AC3
:1019B0008007F7D571484FF4FA510068B0FBF1F099
:1019C000009000BF0098411E0091FAD20EE080E026
:1019D000C0F80080FFF77CFB074604E0FFF778FBC8
:1019E000C01B022875D8686A8007F7D420784007A2
:1019F00060D5E8690027C00008D4E86940F080504D
:101A0000E861E869012700F0805000905C480168B7
:101A1000C90513D40168834641F480710160FFF762
:101A200057FB824606E000BFFFF752FBA0EB0A001F
:101A300064284ED8DBF80000C005F5D5E068012821
:101A40000AD008B1052813D0286A20F001002862C6
:101A5000286A20F0040002E0286A40F001002862B1
:101A6000E06841F2883B98B1FFF732FB82460BE019
:101A7000286A40F004002862EEE700BFFFF728FB69
:101A8000A0EB0A0159455AD8286A8007F6D50CE020
:101A9000FFF71EFB824605E0FFF71AFBA0EB0A01E9
:101AA00059454CD8286A8007F6D41FB1E86920F060
:101AB0008050E861E06988B36968C1F38101022957
:101AC00044D00228C6F8608004D0FFF701FB04462A
:101AD00038E034E0FFF7FCFA074604E0FFF7F8FAD5
:101AE000C01B02282BD828688001F7D4206AB0F5E3
:101AF000803F05D16868A16820F400300843686021
:101B0000D4E908010843696821F474110843686046
:101B1000C6F86090FFF7DCFA044606E025E000BF57
:101B2000FFF7D6FA001B022809D828688001F7D5EC
:101B30001BE000BFFFF7CCFA001B022802D90320EC
:101B4000BDE8F88F28688001F4D40EE00128F7D0B2
:101B50006868226A00F48031914204D1616A00F41D
:101B60007010884201D00120EAE70020E8E7000079
:101B70000010024000004242800442422C0000203B
:101B80000070004010B5401EB0F1807F01D30120ED
:101B900010BD4FF0E02460610F21601701F03BFAA7
:101BA0000020A06107202061002010BD70B590F8D2
:101BB0003C20012A26D0012480F83C40022280F8F3
:101BC0003D2003685A689D6822F070060A68324317
:101BD0005A600D4B02689A4208D0B2F1804F05D08E
:101BE0000A4B9A4202D00A4B9A4204D1496825F026
:101BF00080031943916080F83D40002180F83C103B
:101C0000084670BD022070BD002C01400004004059
:101C10000008004010B5040003D094F83D0010B156
:101C200007E0012010BD002084F83C00204600F0B1
:101C30001FF8022084F83D00211D206800F096FF67
:101C4000012084F8460084F83E0084F83F0084F8C0
:101C5000400084F8410084F8420084F8430084F88E
:101C6000440084F8450084F83D00002010BD0000C9
:101C700008B500680649884208D10648816941F4E0
:101C800000618161806900F40060009008BD00007F
:101C9000002C01400010024090F83D10012901D0B5
:101CA00001207047022180F83D1000680B498842EE
:101CB00008D0B0F1804F05D00949884202D00949C7
:101CC000884204D1816801F00701062903D0016828
:101CD00041F001010160002070470000002C01402C
:101CE000000400400008004001680A6A41F2111334
:101CF0001A4207D10A6A9B101A4203D10A6822F0DD
:101D000001020A60012180F83D100020704770B583
:101D1000044690F83C000025012817D0012684F8DD
:101D20003C60022084F83D002068826822F077023F
:101D300022F47F4282600868502838D00DDC2028C9
:101D40004FD005DC90B3102811D14AE0022070BDBD
:101D5000302846D040280AD13BE060282FD0702898
:101D60000DD0B0F5805F03D0B0F5005F12D0012533
:101D700084F83D60002084F83C00284670BDCB68A4
:101D8000D1E90121206800F02DFF2068816841F031
:101D9000770109E0CB68D1E90121206800F022FF3A
:101DA0002068816841F480418160E1E719E0CA68F8
:101DB0004968206800F028FF5021206806E0CA68C2
:101DC0004968206800F031FF6021206800F014FFAE
:101DD000CEE7CA684968206800F016FF40212068F5
:101DE000F4E7226801461046F0E7704770470000AC
:101DF000F8B5016804460868CA684B6910F00F0F0F
:101E00004FF0000559D003F0010602F490773743F4
:101E100065D0C10705D0D10503D5616C41F0010142
:101E20006164410705D5D90703D0616C41F0020117
:101E30006164810705D5D90703D0616C41F00401C5
:101E40006164010707D502F02001314303D0616CC2
:101E500041F008016164616C00293AD0800604D524
:101E6000900602D5204600F021FF20684069616C91
:101E7000C0F38010090700D460B3204600F0EFFEE5
:101E800020684069400621D52068143050E8001FC2
:101E900021F0400140E80012002AF5D1E06BA8B122
:101EA0006D494163E06BFEF7BBFF002811D0E06B8A
:101EB000416B01B0BDE8F040084783060FD593069B
:101EC0000DD52046BDE8F84000F0F0BE2046FFF7F3
:101ED0008DFFF8BD2046FFF789FF6564F8BD266BCE
:101EE0002023012E7CD1C6067AD5D60678D508687F
:101EF0004868009048694FF00206400640D5E16B03
:101F0000086840680004000CE8D0A28D8242E5D940
:101F1000E085886920282DD020680C3050E8001F0B
:101F200021F4807140E80012002AF5D120681430B5
:101F300050E8001F21F0010140E80012002AF5D10D
:101F40002068143050E8001F21F0400140E80012E2
:101F5000002AF5D184F84230256320680C3050E81F
:101F6000001F21F0100140E80012002AF5D1E06BBB
:101F7000FEF732FF6663A08DE18D401A81B22AE040
:101F8000A08DE18D401A81B2E08D0028A6D00029F5
:101F9000A4D022680C3252E8000F20F4907042E87E
:101FA0000007002FF5D12068143050E8002F22F0F0
:101FB000010240E80027002FF5D184F84230256364
:101FC00020680C3050E8002F22F0100240E8002377
:101FD000002BF5D166632046FFF707FFF8BDFFE74A
:101FE00005062BD5150629D594F841002128F5D1F1
:101FF000A068B0F5805F01D12069B0B1206A411CB2
:102000002162216800784860E08C401E0004000CCA
:10201000E084E3D12068C16821F08001C1602068BC
:10202000C16841F04001C160D8E7206A0088C0F370
:1020300008004860206A801C2062E5E74006CDD594
:102040005006CBD5CA68204622F04002CA6084F808
:10205000413000F027F9C1E74F2C000870B50400AB
:1020600004D094F84100002510B106E0012070BDB5
:1020700084F84050204600F023F8242084F84100E2
:102080002068C16821F40051C160204600F070FE54
:102090002068016921F4904101612068416921F0C3
:1020A0002A0141612068C16841F40051C160656442
:1020B000202084F8410084F842006563002070BD50
:1020C00030B585B000240094019402940394006814
:1020D000184988422CD11848816941F480418161B6
:1020E000816901F480410491816941F004018161B9
:1020F0008069124D00F0040004904FF400700090CD
:10210000022001900320039069462846FEF7E6FE70
:102110002815CDE90004694628460294FEF7DEFE44
:10212000002202212520FFF7C7F92520FFF7B6F985
:1021300005B030BD003801400010024000080140E9
:1021400090F84230202B01D00220704721B11AB103
:102150000023036300F068BE0120704730B50068BB
:10216000244985B0884242D1234C0025234AA179D5
:10217000AA290AD0607988B3122802D21154401CCF
:102180006071C0B2122804D028E011700120607183
:1021900024E0122219496846FEF74BF99DF8000029
:1021A000AA281AD19DF81100552816D10F210DF13A
:1021B0000100FEF74FFB9DF8101081420DD10F4832
:1021C000523890F8291041B99DF80E1001F0010223
:1021D00000F8262FC1F340014170657105B0064932
:1021E000BDE830400122891D0548FFF7A9BF05B0B1
:1021F00030BD0000003801400000002046020020F1
:102200002C0100202DE9F843044690F8410098463F
:1022100016460D46202802D00220BDE8F88385B17D
:102220007EB100206064212084F84100FEF750FF59
:10223000A6848146E684A0682027B0F5805F02D09E
:1022400003E00120E9E7206910B12E4600250EE0E9
:1022500000260CE08021204600F001FEA8B9C6B19E
:1022600016F8010B21684860E08C401EE084E08C89
:102270004B464FF00002CDF800800028EAD14FF025
:102280004001204600F0EBFD40B184F8417003208E
:10229000C3E735F8020BC0F30800E3E784F84170A8
:1022A0000020BAE77047FEE701684A69D243520549
:1022B0000FD46FF480624A61002140F8301F202261
:1022C00042738173026942F00402026101730120CA
:1022D0007047002070470000F8B50446C06A1E46EB
:1022E0000D461746082807D0012805D010F5803F75
:1022F00002D0206B122804D12068016841F480715B
:102300000160134600224FF001112046009600F0B4
:102310005DF840B120680068C00502D54FF4007038
:1023200020640320F8BD2069B0F5804F0ED0062050
:10233000216800EAD51040F0F000086133463A46C3
:102340000B49204600F08AF878B902E005F0FE005B
:1023500000E0E8B221680861054933463A46891F22
:10236000204600F07BF80028DCD00120F8BD0000FA
:102370000800010070B516460D4604461EE02046D2
:10238000FFF792FF08B1012070BD681C16D0FEF760
:102390009FFE801BA84200D885B920684069C043D1
:1023A00040070BD5002044F8300F20216173A07343
:1023B000216941F0200121612073E4E72068406930
:1023C000C0434007DBD4002070BD00002DE9F0477A
:1023D000984617460D460446C1F30746DDF820909F
:1023E0002AE000BFB8F1FF3F26D0FEF771FEA0EB58
:1023F0000901414502D8B8F1000F1DD12068012E16
:1024000016D0806925EA00000004000C12D00020DC
:10241000B84211D1002044F8300F20216173A0731D
:10242000216941F02001216120730120BDE8F0877E
:102430004069E7E70120EBE72068012E0AD08069B8
:1024400025EA00000004000C06D00020B842C9D0E4
:102450000020EBE74069F3E70120F7E72DE9F047BB
:10246000984616460D4604464FF000094FF0200AE4
:10247000C1F3074723E020684069C043400515D4F5
:102480002068016841F40071016021686FF4806088
:102490004861C4F8309084F83DA084F83E90216CE7
:1024A00041F00401216484F83C9021E0701C06D0C6
:1024B000FEF70EFEA0EB0800B04203D816B1012FC4
:1024C0001FD021E02068012F15D0806925EA000087
:1024D0000004000C18D000BF44F8309F84F80DA011
:1024E00084F80E90216941F02001216184F80C905C
:1024F0000120BDE8F087406925EA00000004000CD7
:10250000EAD12068406901E02068806925EA00007E
:102510000004000CAFD1ECE770B516460D4604463A
:102520001EE02046FFF7C0FE08B1012070BD681C08
:1025300016D0FEF7CDFD801BA84200D885B92068D3
:102540004069C04300060BD5002044F8300F20211D
:102550006173A073216941F0200121612073E4E7D8
:1025600020684069C0430006DBD4002070BD10B570
:102570000446818A0069FEF7A1FD20706070A0709A
:1025800010BD70B50D460446FEF7A2FD2168411A44
:10259000A94202D32060012070BD002070BD000060
:1025A00070B586B00D4606460024202210216846EC
:1025B000FDF784FF00208DF810001DB90AE0641CAF
:1025C000102C02D2285D0028F9D1224629466846FF
:1025D000FDF72FFF32460021044800F0B3FD6946A5
:1025E000024800F0FCFD06B070BD0000180000209D
:1025F00070B50546FEF776FB0A212846FEF7D4FAA9
:102600000028284603D0FEF7CDFB002070BDFEF762
:10261000F5F984B22846FEF7C5FB204670BD2DE9CA
:10262000F0410E0007464FF0000501D0002408E0FD
:102630000020BDE8F0813846FFF7DAFF641C05444E
:10264000E4B2B442F7D3B5FBF6F080B2F1E770B56F
:102650000546FEF747FB0A212846FEF7A5FA0028A3
:10266000284603D0FEF79EFB002070BDFEF7C6F99A
:1026700084B22846FEF796FB204670BD2DE9F04156
:102680000E0007464FF0000501D0002408E00020AE
:10269000BDE8F0813846FFF7DAFF641C0544E4B278
:1026A000B442F7D3B5FBF6F080B2F1E73EB50021B6
:1026B0001148009101910F4A0291026081600173FB
:1026C000017501244FF460220461C2614160FEF78C
:1026D00099F908B172B6FEE70320CDE9000406209F
:1026E000029069460448FEF70BF9002801D072B643
:1026F000FEE73EBD00240140300000203EB5002131
:102700001148009101910F4A0291026081600173AA
:10271000017501244FF460220461C2614160FEF73B
:1027200071F908B172B6FEE706200094CDE90140C8
:1027300069460548FEF7E4F8002801D072B6FEE7C6
:102740003EBD000000280140600000202DE9F0415E
:1027500086B0002433480094019402940394816964
:1027600041F020018161816901F0200104918169BA
:1027700041F004018161816901F0040104918169E2
:1027800041F0080181618069274F00F008004FF493
:1027900007650490002229463846FEF794FCDFF8CE
:1027A0008C80002220214046FEF78DFC0520CDE9DB
:1027B0000004694638460294FEF790FB0095022615
:1027C00001250396CDE9015469463846FEF786FB9C
:1027D0008020CDE90004694638460294FEF77EFB6E
:1027E0004FF410408DE8310069463846FEF776FB1D
:1027F00008208DE8310069464046FEF76FFB102047
:102800008DE8310069464046FEF768FB2020CDE99F
:102810000005CDE9024669464046FEF75FFB06B07B
:10282000BDE8F0810010024000080140000C0140AA
:1028300010B586B0002417480094019402940394C4
:1028400004941349059401603F21C0E901144FF637
:10285000FF71C0E9031444618461FFF7DBF908B13B
:1028600072B6FEE74FF48050009069460948FFF7C2
:102870004EFA08B172B6FEE7049404A9054805941F
:10288000FFF794F9002801D072B6FEE706B010BD3C
:10289000002C0140E4000020FEE7FEE77047000046
:1028A0002DE9F04705464FF4FA61001DFFF769FE78
:1028B00000282FD04FF00009DFF85CA0C8464E4634
:1028C0004C4600BF0AEB0410074600F091FD0100E2
:1028D00005EB040001760DD0397B81767A7B027797
:1028E00001EB09001FFA80F902EB0800761C1FFAC1
:1028F00080F8F6B2641CE4B2022CE3D33EB1B9FB1B
:10290000F6F0A877B8FBF6F0E877012000E00020A9
:1029100085F82000BDE8F08774010020002100F058
:1029200002B8AFF3008070B582790D4604460129E4
:1029300004D0012A01D0012200E00022A1882068F1
:10294000FEF7C1FBE57170BD10B5044601780120AA
:10295000072905D2DFE801F004060B1E23282D000D
:10296000207010BD2046FFF79BFF0220F8E7C8212A
:1029700004F10800FFF705FE50B10A210F48FFF7E8
:102980007DFE60840D480A213030FFF748FEA084A8
:102990000320E5E7204600F015F80420E0E7204694
:1029A000FDF764FF0520DBE7204600F097FA0620DC
:1029B000D6E7204600F052F80720D1E7300000208B
:1029C0007047000010B5044614211030FFF7D9FD00
:1029D00070B1204800F062FB1E48183000F05EFB2A
:1029E0001C48303000F05AFB1A48483000F056FBC3
:1029F00019480278002132B194F8292082F00102AE
:102A000084F82920017094F829203AB943782BB131
:102A100094F8263083F0010384F8263041703AB9E7
:102A200082782AB194F8272082F0010284F82720C6
:102A30008170C27832B194F82A2082F0010284F8C1
:102A40002A20C1700279002A03D0012284F82C20A8
:102A5000017110BD940100200000002010B5044653
:102A600086B042F210711430FFF78BFD18B994F85C
:102A70002C00002836D0AA208DF8000001208DF807
:102A80000100A07F00F0A6FDCDF80200E07F00F07D
:102A9000A1FDCDF80600608CADF80A00A08CADF861
:102AA0000C0094F8260000B1012094F8271001B121
:102AB000022108438DF80E0014F8280F8DF80F003E
:102AC0000F210DF10100FDF7C5FE8DF81000552016
:102AD0008DF811006423122269460348FFF792FB28
:102AE0000020207106B010BD2C010020FEF77EBC36
:102AF00030B593B028216846FDF7E8FC14210AA8F8
:102B0000FDF7E4FC0024022501200F9404900095B9
:102B10001020059012944FF46010CDE908401194F4
:102B2000109407956846FEF79DFE08B172B6FEE761
:102B30000F20CDE90A054FF48060CDE90C40022159
:102B40000AA80E94FEF7B2FD08B172B6FEE74FF484
:102B5000004011900F950FA8FEF732FD002801D01C
:102B600072B6FEE713B030BD70470000F0B50268E2
:102B7000194B1A4C1A4D4FF08047984205D0B84275
:102B800003D0A04201D0A84203D122F070064A68C7
:102B90003243984205D0B84203D0A04201D0A842A7
:102BA00003D122F44074CA6822434C6922F08002A7
:102BB000224302608A68C2620A688262984201D136
:102BC00009690163012141610169C90703D00169F4
:102BD00021F001010161F0BD002C01400004004022
:102BE0000008004010B5846842EA032224F47F44C0
:102BF0000A432243826010BD826822F070020A43B9
:102C000042F007018160704710B5036A046A24F03E
:102C100001040462846924F0F00444EA021423F0FD
:102C20000A020A438461026210BD10B5036A046A95
:102C300024F010040462846923F0A00324F4704497
:102C400044EA023243EA01118261016210BD10B50B
:102C5000406A0021C185C184FFF7C8F810BD016832
:102C60000C3151E8002F22F4907241E80023002B30
:102C7000F5D10168143151E8002F22F0010241E83A
:102C80000023002BF5D1016B012909D101680C311A
:102C900051E8002F22F0100241E80023002BF5D16B
:102CA000202180F8421000210163704708B590F898
:102CB0004210222901D0022008BD82684FF48053BF
:102CC0009A4201D1016921B1816A9A421BD04AB16D
:102CD0000AE00268816A5268C2F308020A80816AC7
:102CE000891C08E0026972B10268526802F07F0232
:102CF0000A70816A491C8162C18D491E0904090C50
:102D0000C18503D01BE002685268F1E70168CA6818
:102D100022F02002CA600168CA6822F48072CA6088
:102D200001684A6922F001024A61202180F84210BC
:102D300000214163026B012A03D0FFF70FFA002044
:102D400008BD016301680C3151E8002F22F0100228
:102D500041E80023002BF5D101680A68D20602D5AC
:102D60000A6849680091818DFFF73FF8E7E70000A6
:102D700070B5044600680169E26821F440511143CE
:102D800001612169A0680843616908432168CA6834
:102D900041F20C639A430243CA6020684169A26908
:102DA00021F44071114341611E492068884202D1DB
:102DB000FEF722FD01E0FEF70FFD00EBC00101EB85
:102DC0000012606864218000B2FBF0F3B3FBF1F302
:102DD0006FF018067343B2FBF0F5B2FBF0F605EBAB
:102DE0008305322303EB0515B5FBF1F5B6FBF1F6D0
:102DF00005F0F00505EB0615B2FBF0F6B2FBF0F0BE
:102E0000B0FBF1F06FF01802504306EB800003EBCB
:102E10000010B0FBF1F0216800F00F00284488603A
:102E200070BD00000038014081628285C2850021AA
:102E30004164222180F84210016921B10168CA6809
:102E400042F48072CA6001684A6942F001024A6134
:102E50000068C16841F02001C160002070472DE981
:102E6000F843984617460D460446089E24E0701C19
:102E700022D0FEF72DF9A0EB0800B0421AD8CEB14F
:102E80002068C168490717D5802D15D0402D13D073
:102E90000168C94309070FD4016800254068009004
:102EA0002046FFF7DCFE0820606484F840500120D3
:102EB000BDE8F8830320FBE72068006835EA0000DE
:102EC00004D00020B842D2D00020F1E70120F9E779
:102ED0000148FEF78DBF00002C0100201CB5044600
:102EE0004FF4FA710C30FFF74CFB00285BD094F8DC
:102EF0002A0078B194F82B30E018017E29B3017FC5
:102F0000807ECDE9000128A211212B485B1CFDF732
:102F100063F920E094F8200040B1E07F0090A37FA7
:102F200026A211212448FDF757F904E027A2112118
:102F30002148FDF751F9A08C00901F48638C26A210
:102F400011211130FDF748F922E026A211211A487B
:102F50005B1CFDF741F994F8271094F82600CDE9A1
:102F6000000194F8290008B122A300E023A312482D
:102F700024A211211130FDF72FF994F82B00401CE9
:102F8000C0B284F82B00022802D3002084F82B0062
:102F900009490020FFF704FB0749BDE81C40113137
:102FA0000120FFF7FDBA1CBD44257520543A253297
:102FB0007520483A2532750024020020543A253203
:102FC000754320483A253275252500004448542091
:102FD000496E76616C696400473A253475204C3A35
:102FE0002534750044257520526561642046616969
:102FF0006C0000004155544F000000004D414E2030
:103000000000000025732052313A25752052323AD3
:1030100025750000FEE70907090E002804DB00F112
:10302000E02080F80014704700F00F0000F1E0206D
:1030300080F8141D704730380A2801D201207047EB
:10304000002070470C4B01210C4A984201D11170AD
:103050007047094B1833984201D151707047064BA5
:103060003033984201D191707047034B48339842F6
:10307000FAD1D170704700009401002000000020B8
:103080000349884202D103490120087170470000BA
:10309000DC010020000000207047704770B5044636
:1030A000818A0069FEF70AF8A1780126814204D0DE
:1030B000A070E670FEF70CF86060E078002540B183
:1030C000FEF706F86168401A0F2802D3A078207036
:1030D000E57020786178884210D0F8B1FDF7F8FFEC
:1030E000A168401AB0F57A7F02D82046FFF7AAFF00
:1030F0002046FFF7D2FF257320786070207B0028E0
:103100000BD0FDF7E5FFA168401A40F6B8318842C0
:1031100003D32046FFF7B4FF257370BD2673204606
:10312000FFF7BAFFFDF7D4FFA060E5E701618282F7
:10313000704710B5012100F05EF8BDE81040022094
:10314000FDF7BABE2AB1012A05D1C031C9B200F0DB
:1031500052B88031FAE7704710B504463220FDF7C7
:10316000ABFE3021204600F046F80520FDF7A4FE16
:103170003021204600F03FF80120FDF79DFE302170
:10318000204600F038F80A20FDF796FE2021204660
:1031900000F031F80A20FDF78FFE2821204600F0CC
:1031A0002AF80120FDF788FE0821204600F023F8C8
:1031B0000120FDF781FE0121204600F01CF80220CD
:1031C000FDF77AFE0621204600F015F80120FDF7F4
:1031D00073FE2046BDE810400C2100F00CB870B51D
:1031E0000C46054603E02846641C00F021F82178CF
:1031F0000029F8D170BD1CB501F0F00242F00C03BB
:103200008DF8043042F0080209018DF8052041F0E4
:103210000C028DF8062041F008018DF8071064219A
:10322000009101790068042301AAFEF71BF81CBD78
:103230001CB501F0F00242F00D038DF8043042F0AD
:10324000090209018DF8052041F00D028DF80620D4
:1032500041F009018DF8071064210091017900689F
:10326000042301AAFDF7FEFF1CBD0000FEF7C6F80F
:10327000FFF73EFCFFF76AFA4E4C4D4800252060F0
:103280004D48C4E901054FF48040C4E9035065612D
:10329000A561E56120462562FDF720FF08B172B601
:1032A000FEE7FFF703FAFFF7C3FAFFF727FA4148F3
:1032B00042499C3001604FF41651C0E901150C21C0
:1032C000C560C0E904518561C561FEF7C7FE08B15C
:1032D00072B6FEE737493A4E54314FF40063324636
:1032E00001F19000FDF706FB32494023543132468C
:1032F00001F1A000FDF7FEFA6420FDF7DDFD314885
:103300004E2104600171FFF727FF2E48FFF711FFE0
:103310002C481038FFF702FB2A480838FFF7FEFA5E
:103320000020FDF78DFA30212748FDF7CFF8264819
:1033300001210A03057080F8291031466038FFF733
:10334000F5FE21484FF4004231464838FFF7EEFEC3
:103350001E4C1D48082221463038FFF7E7FE1A4868
:10336000102221461838FFF7E1FE17486038FFF7B2
:10337000FEF815484838FFF7FAF813483038FFF7D9
:10338000F6F811481838FFF7F2F811A10020FFF7FE
:1033900007F913A10120FFF703F90A4905480122A3
:1033A00012399C30FEF7CCFE0748FFF7CDFAFBE759
:1033B0000054004090000020A08601000038014029
:1033C0000008014018000020F4010020000C01401A
:1033D00053797374656D20426F6F74696E67000076
:1033E00053544D333220496F54204E6F64650000B2
:1033F0002DE9F04F4FF0000B8BB004465E465D4662
:103400005F46012100F0CDF8A18800222068FDF779
:103410005AFE1220FDF750FD72B6A068FEF73CFC84
:103420000021204600F0BDF8A1684FF000090968AE
:10343000C1F824904FF4FA7A07E0A0680068406A67
:1034400080B2504501D962B6A3E0A1882068FDF79B
:1034500035FE0128F1D0A1680968C1F8249003E085
:10346000406A80B25045EED8A1882068FDF726FE5C
:103470000028A0680068F3D0416A1FFA81F8002193
:10348000416201E05045DED8A1882068FDF716FEB4
:103490000128A0680068406A80B2F3D0A8F14B010F
:1034A0000B29D0D24B380B28CDD24FF00009C8469B
:1034B000A1680968C1F8248005E0A0680068406A36
:1034C00080B25045BFD8A1882068FDF7F7FD0028DD
:1034D000F3D0A1680968C1F8248001E05045B2D852
:1034E000A1882068FDF7EAFD0128A0680068406A0D
:1034F00080B2F3D0A0F11501092901D2002003E028
:103500003D38132801D2012083460DF809B009F196
:103510000109B9F1280FCBDBA068FEF7E5FB62B625
:1035200000216846425C491C66F35F02D6B2082956
:10353000F8DB00231A46082110F801C0491C63F388
:103540005F0C0CF0FF031029F6DB102110F801C00E
:10355000491C65F35F0C0CF0FF051829F6DB1821F8
:1035600010F801C0491C62F35F0C0CF0FF02202927
:10357000F6DB202110F801C0491C67F35F0C0CF04A
:10358000FF072829F6DBF01828441044C0B2B842DF
:1035900003D000200BB0BDE8F08F257366730120C7
:1035A000F8E71FB5002200920192029203920322D3
:1035B000012909D0002906D1818800910392006871
:1035C0006946FDF78BFC1FBD8188009101210191A7
:1035D000F4E70000B0FA80F310FA03F2C3F19D03A0
:1035E0000AD0D90501EB1220530638BF704700F10D
:1035F000010008BF20F0010070470102020304052A
:10360000060708090A0B0C0D0E0F10100102020329
:103610000405060708090A0B0C0D0E0F1010000018
:103620000000000000000102030406070809000072
:1036300000000102030400005836000800000020CA
:103640003000000028010008883600083000002003
:10365000880800004401000800000000000000008D
:103660000008014020000000000801401000000098
:103670000000000000000000010000001000000039
:083680000000000000127A00B6
:04000005080000ED02
:00000001FF
